:100000000C9404010C942C010C942C010C942C01E4
:100010000C942C010C942C010C942C010C942C01AC
:100020000C942C010C942C010C946F070C94DE079B
:100030000C942C010C942C010C942C010C942C018C
:100040000C942C010C942C010C942C010C942C017C
:100050000C942C010C942C010C942C010C94680A27
:100060000C942C010C94360A0C94100A0C942C015C
:100070000C942C010C942C010C942C010C942C014C
:100080000C942C010C942C010C942C010C942C013C
:100090000C942C010C942C010C942C010C942C012C
:1000A0000C942C010C942C010C942C0100000000E9
:1000B000000000002A2B28000000000000000000C3
:1000C0000000000000000000000000002C9EB4A012
:1000D000A1A2A434A6A7A5AE362D3738271E1F200F
:1000E000212223242526B333B62EB7B89F848586D4
:1000F0008788898A8B8C8D8E8F9091929394959618
:100100009798999A9B9C9D2F3130A3AD3504050695
:100110000708090A0B0C0D0E0F10111213141516F7
:100120001718191A1B1C1DAFB1B0B500080B00023F
:100130000202000009040000010202000005240080
:100140001001052401010104240206052406000112
:100150000705810310004009040100020A000000A5
:100160000705020240000007058302400000040367
:10017000090412010002EF02014041233680000110
:100180000102030141726475696E6F204C4C43009B
:1001900041726475696E6F204C656F6E6172646F39
:1001A0000005010906A1018502050719E029E715E7
:1001B0000025017501950881029501750881039557
:1001C000067508150025730507190029738100C0FD
:1001D00005010902A1010901A10085010509190113
:1001E0002903150025019503750181029501750507
:1001F000810305010930093109381581257F75080A
:1002000095038106C0C0B20A11241FBECFEFDAE009
:10021000DEBFCDBF11E0A0E0B1E0E6E7FCE102C047
:1002200005900D92A035B107D9F722E0A0E5B1E025
:1002300001C01D92A03BB207E1F711E0C4E0D1E09C
:1002400004C02197FE010E94330EC330D107C9F7C5
:100250000E94870B0C94390E0C940000FC018091D5
:100260009901882311F13FB7F89482E08093E90067
:100270002091F200822F90E01816190614F481E004
:1002800090E0882339F0289844E640939801409103
:10029000F1004083222339F02091F200211103C0A4
:1002A0002BE62093E8003FBF08958FEF9FEF08955E
:1002B000CF93DF931F92CDB7DEB76983DC01ED9159
:1002C000FC910280F381E02D41E050E0BE016F5FC0
:1002D0007F4F09950F90DF91CF91089583E0809330
:1002E000E9008091F200882319F08AE38093E80006
:1002F0000895CF93DF931F92CDB7DEB7FC018485BD
:10030000958597FD08C02FEF3FEF358724870F9025
:10031000DF91CF910895CE0101960E942E010197A1
:1003200019F4898190E0F3CF8FEF9FEFF0CF0F9317
:100330001F93CF93DF931F92CDB7DEB78C01FC01E3
:100340008485958597FF0BC0CE0101960E942E01F2
:10035000019771F4898190E0F80195878487F8010D
:10036000848595850F90DF91CF911F910F9108950E
:100370008FEF9FEFF1CFFC018485958597FD0BC032
:100380009FB7F89482E08093E9008091F2009FBFCC
:1003900090E0019608959FB7F89482E08093E90079
:1003A0008091F2009FBF90E00895409180015091AC
:1003B000810120917E0130917F0142175307B4F4EF
:1003C0009091E8009570E1F39091E80092FD19C0DA
:1003D0008093F100809180019091810101968F734B
:1003E0009927892B19F48EEF8093E8008091800182
:1003F000909181010196909381018093800181E029
:10040000089580E00895EF92FF920F931F93CF938A
:10041000DF93F82E192FE62E042F81E0860F880F28
:100420000E94D50183E00E94D501CF2DD12FEC0E83
:10043000FD2EF11CCE15DF05B9F007FF13C0FE013C
:1004400084910E94D501182F80E00E94D50181235C
:1004500021968111EFCFDF91CF911F910F91FF90E6
:10046000EF9008958881EDCF81E0F5CFDF92EF9294
:10047000FF920F931F93CF93DF93D82E8A01EB0146
:100480007B01E40EF51ECE15DF0559F0D7FE12C034
:10049000FE0184910E94D50121968111F4CF0FEFC6
:1004A0001FEFC801DF91CF911F910F91FF90EF9047
:1004B000DF9008958881EECF2FB7F89487708093EE
:1004C000E9009091E800892F807295FF04C0909117
:1004D000F20080E4891B2FBF089583E00E945C0234
:1004E00090E00895615030F02091F100FC012083EC
:1004F0000196F8CF289884E6809398010895AF92EA
:10050000BF92CF92DF92EF92FF920F931F93CF9300
:10051000DF936C017B018B01040F151FEB015E0162
:10052000AE18BF08C017D10759F06991D601ED91F7
:10053000FC910190F081E02DC6010995892B79F796
:10054000C501DF91CF911F910F91FF90EF90DF9048
:10055000CF90BF90AF9008958091760181110DC02A
:1005600082E08093720184E08093730110927501A0
:100570001092740181E08093760182E791E0089502
:100580000F931F93CF93DF931F92CDB7DEB782E017
:10059000898342E450E06CE271E080E80E94360218
:1005A0000E94AC02DC0112960D911C9101151105FF
:1005B00089F0D801ED91FC910280F381E02DBE011C
:1005C0006F5F7F4FC801099597FD04C0F801008552
:1005D0001185ECCF89810F90DF91CF911F910F9101
:1005E0000895FC01538D448D252F30E0842F90E039
:1005F000821B930B541710F0CF960895019708951E
:10060000FC01918D828D981761F0A28DAE0FBF2FE6
:10061000B11D5D968C91928D9F5F9F73928F90E03C
:1006200008958FEF9FEF0895FC01918D828D9817AB
:1006300031F0828DE80FF11D858D90E008958FEFE8
:100640009FEF0895FC01918D228D892F90E0805CB1
:100650009F4F821B91098F73992708958AEE91E02D
:100660000E94220321E0892B09F420E0822F0895C3
:1006700080E090E0892B29F00E942E0381110C94D8
:1006800000000895FC01A48DA80FB92FB11DA35A35
:10069000BF4F2C91848D90E001968F739927848FA2
:1006A000A689B7892C93A089B1898C9182748C9387
:1006B000938D848D981306C00288F389E02D808184
:1006C0008F7D80830895EF92FF920F931F93CF93B6
:1006D000DF93EC0181E0888F9B8D8C8D981319C07E
:1006E000E889F989808185FF14C09FB7F894EE8965
:1006F000FF896083E889F9898081827480839FBF44
:1007000081E090E0DF91CF911F910F91FF90EF90EA
:100710000895F62E0B8D10E00F5F1F4F0F731127FA
:10072000E02E8C8D8E110CC00FB607FCFACFE88935
:10073000F989808185FFF5CFCE010E944203F1CF78
:10074000EB8DEC0FFD2FF11DE35AFF4FF0829FB7A9
:10075000F8940B8FEA89FB8980818062CFCFCF9399
:10076000DF93EC01888D8823B9F0AA89BB89E889D9
:10077000F9898C9185FD03C0808186FD0DC00FB67F
:1007800007FCF7CF8C9185FFF2CF808185FFEDCFFD
:10079000CE010E944203E9CFDF91CF9108953FB788
:1007A000F89480916E0190916F01A0917001B091C9
:1007B000710126B5A89B05C02F3F19F00196A11D18
:1007C000B11D3FBFBA2FA92F982F8827BC01CD019B
:1007D000620F711D811D911D42E0660F771F881FFA
:1007E000991F4A95D1F708958F929F92AF92BF9229
:1007F000CF92DF92EF92FF924B015C010E94CF03F8
:100800006B017C010E94CF036C197D098E099F0941
:10081000683E734081059105A8F321E0821A910892
:10082000A108B10888EEC80E83E0D81EE11CF11CB7
:1008300081149104A104B10429F7FF90EF90DF9097
:10084000CF90BF90AF909F908F9008957F928F929E
:100850009F92AF92BF92CF92DF92EF92FF920F934F
:100860001F93CF93DF93C82E8B017A01809199015A
:10087000811110C08FEF9FEFDF91CF911F910F91EA
:10088000FF90EF90DF90CF90BF90AF909F908F90B0
:100890007F9008958091840180FF05C08091E000E1
:1008A00082608093E000CE2DDF2DD12C8AEFB82E10
:1008B0008C2D8770982E8C2D8072882E8C2D8074B4
:1008C000782E9AE3A92E209719F4DD2009F452C05E
:1008D0008C2D0E945C0281110AC0BA94BB2051F297
:1008E00061E070E080E090E00E94F403ECCF8C17B0
:1008F0001D0611F00CF08C2F9FB7F8949092E90030
:100900002091E80025FD02C09FBFDDCF282F30E0F9
:10091000C21BD30B882029F08150A0F01092F10067
:10092000FBCFF801C7FC0AC0815050F041914093C1
:10093000F100FACF44914093F10031968150D0F705
:10094000020F131FDD2021F0A092E800D12CDCCF94
:100950008091E80085FD07C0A092E800DD24D394D3
:10096000209791F2F3CF209779F6772069F2A09241
:10097000E800CACF5D9884E680938301C7017CCFED
:10098000CF93DF93EC0180911201882331F083E053
:100990000E9426041816190634F081E090E09B832B
:1009A0008A8380E090E0DF91CF9108952FB7F8948B
:1009B00060916A0170916B0180916C0190916D0161
:1009C0002FBF0895CF92DF92EF92FF920F931F9364
:1009D000CF93DF936C01EB017B01E40EF51E10E079
:1009E00000E0CE15DF0581F069916D30D1F3D601BD
:1009F000ED91FC910190F081E02DC6010995892BC4
:100A000019F00F5F1F4FEDCFC801DF91CF911F91FC
:100A10000F91FF90EF90DF90CF900895089590E0B0
:100A200080E00895DC01FB0112962C9112978481DD
:100A300095812817190641F491818081813A31F41A
:100A40009D7F81E0913009F080E008958132E1F7E7
:100A50009B3029F482811F968C9381E008959A300F
:100A600099F7828150968C93F8CFAF92BF92CF9234
:100A7000DF92EF92FF920F931F93CF93DF931F921A
:100A8000CDB7DEB77C0169836A01590141E050E0CE
:100A9000BE016F5F7F4FFC0183810E9426048C01A1
:100AA00097FD0BC0F7018381A501B60180640E9408
:100AB0002604080F191F97FD8C01C8010F90DF91C4
:100AC000CF911F910F91FF90EF90DF90CF90BF904B
:100AD000AF900895DC01FB0188E4808389E4818381
:100AE00084E482831D969C911D979F709F5B9383E6
:100AF0001D968D919C9124E0969587952A95E1F716
:100B00008F708F5B848385E00895EF92FF920F933F
:100B10001F93CF93DF93FB012081213871F523814F
:100B2000223259F5DC0112964C912481358142170D
:100B3000130619F5EC010B851C85F12CE12C011530
:100B4000110589F0F801448155816281738180E843
:100B50000E9436028F3F980749F0E80EF91ED8012F
:100B60000D911C91ECCF81E08F87C701DF91CF9170
:100B70001F910F91FF90EF90089590E080E0F6CFE5
:100B8000CF93DF93CDB7DEB769970FB6F894DEBF8A
:100B90000FBECDBFFC01DB018C918F5F8C939E015A
:100BA0002D5F3F4F8DE0D9011D928A95E9F729E02D
:100BB000298384E08A8391E09D8383E08E832A8762
:100BC00021E22B879C879D879F8722E2288B27E045
:100BD0002B8B25E02C8B8E8B20E430E0388F2F8BF5
:100BE000998F82818B8395858685998B8A8B83816A
:100BF00080688D8B49E150E0BE016F5F7F4F80E0E0
:100C00000E94360269960FB6F894DEBF0FBECDBFC4
:100C1000DF91CF910895CF93DF938091610181118E
:100C200067C081E080935401809355012AE531E04B
:100C30003093570120935601109259011092580198
:100C400027E131E0309351012093500110925C0173
:100C500010925B0110925E0110925D0180935F0122
:100C60008093600181EC80935A010E94AC02FC01E8
:100C7000818190915401482F490F5527551F4830C5
:100C800051059CF5A281B381109709F520E531E06B
:100C900033832283208120935201809353018091DA
:100CA0005501820F808320915601A22FB0915701E8
:100CB0008A2F821B8917C8F481813D91C82FD0E00B
:100CC000C050DF4F38838F5F8183F2CFD9011896F0
:100CD0002D913C91199721153105C1F720E531E09F
:100CE00019963C932E931897D5CF81E0809361019C
:100CF00080E591E0DF91CF910895CF93DF9300D00D
:100D000000D0CDB7DEB79091AF0299838A836B8311
:100D10004C830E940B0624E030E0AE014F5F5F4F32
:100D200061E00E9435050F900F900F900F90DF91BA
:100D3000CF9108959091AF0280958923981739F04B
:100D40008093AF0240E060E080E00C947D0608955F
:100D50009091AF02892B981739F08093AF0240E051
:100D600060E080E00C947D060895CF93DF93EC0162
:100D70000E940B0628E030E0AE0162E0DF91CF91E7
:100D80000C943505DC01683888F1685816968C910A
:100D90001697861721F117968C9117978617F9F0F9
:100DA00018968C9118978617D1F019968C911997EF
:100DB0008617A9F01A968C911A97861781F01B96C0
:100DC0008C911B97861759F0FD01369690E080E0D4
:100DD0002191211139C08A0F9B1FFC016683CD012F
:100DE00004960E94B50681E090E00895E62FF0E0B9
:100DF00067FF11C0E058F10921E030E001C0220F87
:100E0000EA95EAF714968C911497822B14968C939A
:100E1000149760E0BBCFE455FF4F6491611109C0A6
:100E200081E090E013969C938E93129790E080E07F
:100E3000089567FFABCF14968C9114978260149637
:100E40008C9314976F77A2CF01968630910509F0A5
:100E5000BFCFE6CFEF92FF920F931F93CF938C01FA
:100E6000C62F0E94C2067C01C838C8F0C858F801D5
:100E700086E0CC2321F09681C91301C016828150EF
:100E800031968111F6CFC80104960E94B506C701BC
:100E90009927CF911F910F91FF90EF900895EC2F1C
:100EA000F0E0C7FF0FC0E058F10981E090E001C019
:100EB000880FEA95EAF78095F80194818923848365
:100EC000C0E0D5CFE455FF4FC491CC2301F3C7FF59
:100ED000CECFF80184818D7F8483CF77C8CF1F92D6
:100EE0000F920FB60F9211248F939F938091E10080
:100EF0009091E100937F9093E10083FF0FC01092E7
:100F0000E90091E09093EB001092EC0092E3909353
:100F1000ED001092990198E09093F00082FF22C0BA
:100F200093E09093E9009091F200992319F09AE3ED
:100F30009093E80090918301992341F0909183016F
:100F4000915090938301911101C05D9A9091980105
:100F5000992341F0909198019150909398019111AB
:100F600001C0289A84FF18C08091E2008E7E8160C3
:100F70008093E2008091E1008F7E8093E100809178
:100F800084018E7E8061809384019F918F910F9068
:100F90000FBE0F901F90189580FFF7CF8091E20051
:100FA0008E7E80618093E2008091E1008E7E80934E
:100FB000E100809184018E7E8160E5CF1F920F92C7
:100FC0000FB60F921124CF92DF92EF92FF920F9300
:100FD0001F932F933F934F935F936F937F938F93C1
:100FE0009F93AF93BF93EF93FF93CF93DF93CDB7CF
:100FF000DEB76C97DEBFCDBF1092E9008091E800AC
:1010000083FF25C068E0CE0145960E94720282EF00
:101010008093E8008D8987FF39C09091E80090FFA8
:10102000FCCF982F907609F034C19E894F89588D56
:101030002F89F88C911131C0803861F5809185013C
:101040008093F1001092F1008EEF8093E8006C968F
:101050000FB6F894DEBF0FBECDBFDF91CF91FF91E9
:10106000EF91BF91AF919F918F917F916F915F9120
:101070004F913F912F911F910F91FF90EF90DF9033
:10108000CF900F900FBE0F901F9018959EEF9093EA
:10109000E800C7CF1092F100D5CF913059F48111FB
:1010A000D3CF4130510581F6809185018D7F8093AA
:1010B0008501CACF933049F48111C6CF4130510523
:1010C00019F6809185018260F2CF953041F48091CC
:1010D000E80080FFFCCF20682093E300B5CF963076
:1010E00009F0A9C00B8D1C8D22E01092E90010922E
:1010F000810110928001F2122EC010927F01109295
:101100007E010E94C0021F8299E09983FA8291E0D9
:101110009E8390EA98879AEF998720918001309179
:101120008101275F3F4F3C832B838D831092E90021
:10113000109281011092800110937F0100937E0133
:1011400049E050E0BE016F5F7F4F80E00E943602B1
:101150000E94C00279CF10937F0100937E010E940C
:10116000AC02DC0112960D911C910115110509F4D8
:1011700051C1D801ED91FC910480F581E02DBE01B3
:101180006B5E7F4FC8010995009709F03EC1F801D9
:1011900000851185EACFF3E0FF120EC08F89882306
:1011A00009F440C0823061F440E860E180E991E0F8
:1011B0000E940302811148CF81E28093EB0047CF68
:1011C000813029F440E86BE084E891E0F1CF83308E
:1011D00099F70E94AC02DC011296ED90FC908E0112
:1011E0000F5F1F4F6801E114F10479F0D701ED9111
:1011F000FC910680F781E02DB801C7010995080F21
:10120000111DF701E084F184EECFD8011C92F601A4
:1012100001900020E9F73197BF016C197D0940E08A
:10122000C601C6CF6EE671E0FB01449150E080E854
:101230000E94360209CF973009F4BECF983021F4CE
:1012400081E08093F10000CF993009F0FDCE8370EA
:1012500009F0B2CFE1E0F1E081E031E096E32191E5
:10126000222371F08093E9003093EB00DF011197A6
:101270002C912093EC009093ED008F5F873079F7ED
:101280008EE78093EA001092EA008F89809399019B
:10129000DBCE8B8D9C8D1092E90010928101109213
:1012A000800190937F0180937E01898D811192C08E
:1012B0008E899D89913A49F4813209F07DCF47E0CA
:1012C00050E06BE071E080E0B3CF913209F074CF71
:1012D000833269F48F89988DB0E0A0E08093070194
:1012E00090930801A0930901B0930A01ADCE80321A
:1012F00069F48091E80082FFFCCF67E08BE091E029
:101300000E9472028BEF8093E8009ECE823209F039
:101310009BCE8F8980931201EEEFFFE78591949128
:101320008B3F9C4D51F1E0E0F8E080910B019091F2
:101330000C01A0910D01B0910E01803B9440A105DC
:10134000B105F1F48091120180FD1AC0EE3F8AE0F0
:10135000F80789F587E797E791838083809160009C
:101360008093820188E19BE00FB6F894A895809362
:1013700060000FBE9093600067CEEEEFFAE0D5CF2D
:10138000808191818737974709F05ECEA89580913B
:10139000600088618093600080918201809360008A
:1013A000EE3F2AE0F20789F08091FE0A9091FF0A51
:1013B0009183808349CE808191818737980751F24C
:1013C0009093FF0A8093FE0AC5CF1092FF0A1092F5
:1013D000FE0A3ACE0E94AC02DC0112960D911C91DD
:1013E0000115110509F4E8CED801ED91FC910190A9
:1013F000F081E02DBE016B5E7F4FC8010995811120
:1014000023CEF80100851185EBCF181619060CF4D0
:101410001BCED2CEF1E0FF12BECE62E771E004CF68
:101420001F920F920FB60F9211242F933F934F9359
:101430005F936F937F938F939F93AF93BF93EF933C
:10144000FF938AEE91E00E944203FF91EF91BF91DA
:10145000AF919F918F917F916F915F914F913F914C
:101460002F910F900FBE0F901F9018951F920F9203
:101470000FB60F9211242F938F939F93EF93FF93A7
:10148000E091FA01F091FB018081E0910002F0917E
:10149000010282FD1BC09081809103028F5F8F73D8
:1014A00020910402821741F0E0910302F0E0E6513E
:1014B000FE4F958F80930302FF91EF919F918F9143
:1014C0002F910F900FBE0F901F9018958081F4CF31
:1014D0001F920F920FB60F9211242F933F938F9369
:1014E0009F93AF93BF9380916A0190916B01A091FC
:1014F0006C01B0916D013091690123E0230F2D370C
:1015000058F50196A11DB11D2093690180936A01D0
:1015100090936B01A0936C01B0936D0180916E016B
:1015200090916F01A0917001B09171010196A11D80
:10153000B11D80936E0190936F01A0937001B093E1
:101540007101BF91AF919F918F913F912F910F901A
:101550000FBE0F901F90189526E8230F0296A11D2D
:10156000B11DD2CF10929D0110929C0188EE93E0A4
:10157000A0E0B0E080939E0190939F01A093A00112
:10158000B093A10123E231E030939B0120939A01B3
:101590002FEF3FEF3093A7012093A6011092ED01AA
:1015A0001092EC018093EE019093EF01A093F00173
:1015B000B093F10185E391E09093EB018093EA0110
:1015C0008DEC90E09093F7018093F6018CEC90E025
:1015D0009093F9018093F80188EC90E09093FB01DF
:1015E0008093FA0189EC90E09093FD018093FC01D7
:1015F0008AEC90E09093FF018093FE018EEC90E0E6
:101600009093010280930002109203021092040250
:101610001092050210920602109298021092970200
:1016200087E491E0909396028093950280918D02D9
:10163000811113C0109288021092870281EA91E012
:1016400090938A02809389028FE290E090938C02BB
:1016500080938B0281E080938D020E940B06FC0137
:10166000A385B4851097F1F587E892E09487838786
:101670008585968520918B0230918C02820F931F75
:10168000968785871092AF028091A702811113C0BF
:101690001092A2021092A10280ED91E09093A40218
:1016A0008093A30286E390E09093A6028093A50224
:1016B00081E08093A7020E940B06FC01A385B485FC
:1016C0001097D9F481EA92E094878387858596857F
:1016D0002091A5023091A602820F931F96878587DD
:1016E0000895DC018D919C9111970097D1F787E8BF
:1016F00092E08D939C93BCCFDC018D919C911197CE
:101700000097D1F781EA92E08D939C93DFCF789494
:1017100084B5826084BD84B5816084BD85B58260F6
:1017200085BD85B5816085BD80916E0081608093A7
:101730006E00109281008091810082608093810010
:101740008091810081608093810080918000816020
:1017500080938000809191008260809391008091BD
:1017600091008160809391008091900081608093CE
:1017700090008091C10084608093C1008091C1007D
:1017800082608093C1008091C10081608093C1001C
:101790008091C30081608093C3008091C00082600B
:1017A0008093C0008091C20081608093C2008091CC
:1017B0007A00846080937A0080917A0082608093BE
:1017C0007A0080917A00816080937A0080917A001B
:1017D000806880937A00109299011092850110928E
:1017E00084018091D70081608093D70080EA809344
:1017F000D80089B5806189BD89B5826089BD09B489
:1018000000FEFDCF61E070E080E090E00E94F40314
:101810008091D8008F7C80618093D8008091E00017
:10182000807F8093E0008091E1008E7E8093E100D4
:101830008DE08093E200559A209AE091FA01F091B0
:10184000FB0182E08083E091F601F091F7011082C4
:10185000E091F801F091F90180E180831092020299
:10186000E091FE01F091FF0186E08083E091FC01B0
:10187000F091FD01808180618083E091FC01F09115
:10188000FD01808188608083E091FC01F091FD0181
:10189000808180688083E091FC01F091FD0180816E
:1018A0008F7D80831BE702E0D1E04CE3F42E5DE7FF
:1018B000E52E8AEE91E00E942203892B09F4CEC026
:1018C0008AEE91E00E940003C82F0E94D604609324
:1018D0009401709395018093960190939701CB3773
:1018E00009F051C0809193018B37A1F163E885E93C
:1018F00092E00E94C206B090920161EBB11001C06B
:101900006DE385E992E00E94C20665E070E080E048
:1019100090E00E94F40310929B0210929C0210929D
:101920009D0210929E0210929F021092A0021092AD
:10193000990289E992E00E94B50681E0B11080E049
:10194000809392011092910110929001D0938F0197
:101950001093930180918F018111ABCF80919301FE
:10196000CA3309F01EC18A3309F4A3CFC09393018F
:101970000E94D6046093860170938701809388014A
:101980009093890196CFCD37C1F4809193018D3723
:1019900009F38091AF0280FF0CC081E00E949A069B
:1019A0001092910110929001D0938F01E0929301D7
:1019B000D1CF81E00E94A806F3CFC63209F03CC126
:1019C00080919301863231F2109291011092900130
:1019D000C0939301BFCF809193018C33B9F081E024
:1019E00090918E01911180E080938E01109291016F
:1019F00010929001F09293010E94D60460938A01A4
:101A000070938B0180938C0190938D018091930151
:101A10008C3309F09FCF0E94D60480908A01909069
:101A20008B01A0908C01B0908D01681979098A0909
:101A30009B09673272408105910508F48BCF0093B2
:101A40008E01109291011092900110928A011092D1
:101A50008B0110928C0110928D017CCF0E94D604D4
:101A60008090940190909501A0909601B09097017C
:101A7000681979098A099B096338710581059105FF
:101A800008F44EC0109291011092900110928F01B3
:101A9000809193018A3309F071C00E94D60480902E
:101AA000860190908701A0908801B0908901681903
:101AB00079098A099B09663272408105910560F4B3
:101AC00081E00E94A80665E070E080E090E00E945E
:101AD000F40381E00E949A060E94D60468197909ED
:101AE0008A099B096632724081059105B8F00E940F
:101AF000D604681979098A099B09683B7B408105EE
:101B0000910560F482E00E94A80665E070E080E044
:101B100090E00E94F40382E00E949A0610929301E2
:101B20008091900190919101009741F120918E0157
:101B30002230C1F44FEF97FD41E060E080E00E9469
:101B40007D066CE271E080E090E00E94F4038AEE92
:101B500091E00E942203892B89F08AEE91E00E9495
:101B60000003F5CF97FD01969595879540E060E0DD
:101B7000213011F4682F80E00E947D066AE070E059
:101B800080E090E00E94F40380E090E0892B09F46B
:101B900090CE0E942E03882309F48BCE0E94000071
:101BA00088CE8A3309F085CE0E94D60480908601C3
:101BB00090908701A0908801B090890168197909F7
:101BC0008A099B09663272408105910560F481E0C3
:101BD0000E94A80665E070E080E090E00E94F403B7
:101BE00081E00E949A060E94D604681979098A0940
:101BF0009B096632724081059105B8F00E94D604B7
:101C0000681979098A099B09683B7B408105910520
:101C100060F482E00E94A80665E070E080E090E059
:101C20000E94F40382E00E949A06109291011092A1
:101C30009001109293013DCECC3309F4CCCE80912B
:101C40009001909191010197CE3541F080919001E2
:101C5000909191010196CE3309F07CCE9093910141
:101C600080939001B5CEEE0FFF1F0590F491E02D0B
:061C70000994F894FFCF77
:101C760000C18081000000FFFFFFFF00E1000000BF
:101C8600000000000000001205C00585056A050079
:101C96000000005801C0046D026E01BB0179019776
:101CA600010000000063037F02F102AF032203007C
:101CB600031403000000002A07E2040F050E0500C6
:00000001FF
